:020000040804EE
:100000000881022051030408BD3506087304040862
:1000100025300608D94E0408F995060800000000AE
:100020000000000000000000000000007D710608D4
:100030006503040800000000BF030408097F0608E8
:100040006B0304086B0304086B030408E5650608EA
:100050006B0304086B030408899E0508D79E0508F6
:10006000E99E0508FB9E05080D9F05086B03040823
:100070006B0304086B030408597E0508697E0508B4
:100080006B0304086B0304086B0304086B03040888
:100090006B0304086B0304086B0304081F9F050827
:1000A0006B0304086B0304086B0304086B03040868
:1000B00001800608718006086B0304086B030408BE
:1000C0006B0304086B0304086B0304086B03040848
:1000D0006B030408B19506086B030408C99506086C
:1000E0009B9E0508856406086B0304086B030408DF
:1000F0006B0304086B0304086B0304086B03040818
:100100006B0304086B0304086B0304086B03040807
:100110006D91060885910608D580060819810608A4
:10012000797E0508897E05086B030408997E050819
:10013000A97E0508A99B05086B0304086B03040846
:100140006B0304086B0304086B0304086B030408C7
:100150006B0304086B0304086B030408E1950608AD
:100160006B0304086B0304086B0304086B030408A7
:100170006B0304086B0304086B0304080000000011
:100180006B0304086B0304086B0304086B03040887
:100190006B0304086B0304086B0304086B03040877
:1001A0006B0304086B0304086B03040800F002F8F7
:1001B00000F0BFF80AA090E8000C82448344AAF142
:1001C0000107DA4501D100F0B4F8AFF2090EBAE840
:1001D0000F0013F0010F18BFFB1A43F0010318477B
:1001E00070D0060090D0060010F8013B0A4413F0CE
:1001F000030408BF10F8014B1D1108BF10F8015B84
:10020000641E05D010F8016B641E01F8016BF9D172
:10021000002D15D010F8014B03F00C030C2BA1EBB3
:1002200004040ABF10F8013BA4EB8314A4EB0324DD
:1002300005F1010314F8016B5B1E01F8016BF9D5A0
:10024000914238BF10F8013BD1D3704700230024FE
:1002500000250026103A28BF78C1FBD8520728BFD6
:1002600030C148BF0B6070476E2901F08F81702943
:1002700000F0358566291FF099A165291FF096A128
:1002800067291FF093A161291FF092A103681B0A3F
:1002900028BF41F08001692900F0A684642900F09C
:1002A000A384752900F0A0846F2901F008867829BD
:1002B00000F00185E92901F0A385E42901F0A0857A
:1002C000F52901F09D85EF2901F00586F82900F058
:1002D00000850368DB0928BF41F08001632901F034
:1002E0002485732901F02985E32902F04180F3294F
:1002F00002F04680002070471FB55FF09FF801F0C4
:1003000081FF0400002000215DF024FC401C60609F
:10031000002000215DF034FCE060002000215DF051
:1003200045FC206101F06CFE1FBD10B501F0D1FE4F
:1003300010BD02F03FFB1146FFF7DEFF3EF0CAFBA7
:1003400002F0E4FE03B4FFF7F0FF03BC2DF064FA03
:100350000948804709480047FEE7FEE7FEE7FEE759
:10036000FEE7FEE7FEE7FEE7FEE7FEE70448054995
:10037000054A064B70470000497F0608AD01040896
:1003800008710220088102200879022008790220E1
:10039000EFF3108072B6704780F3108870473A4AC6
:1003A0001368012B04D04FF001031360374A10602B
:1003B000374A116037484FF0805101607047EFF3C2
:1003C000108272B63048016821B34FF0000101601D
:1003D0002E48016891B1EFF309811EF0100F08BF9C
:1003E00021ED108B21E9F00F4FF000041EF0100FEB
:1003F00008BF012441F8044D0068016024490968E0
:10040000096808C9B1E8F00F002B18BFB1EC108BD8
:1004100081F3098882F310884EF0100E002B18BF6C
:100420002EF0100E4EF0040E704719490860EFF3DD
:10043000148222F0040282F3148814494FF0000061
:10044000086011494FF00100086013484FF47F0124
:10045000D0F8002041EA020101600E484FF08051BF
:1004600001600E480068006880F3088861B662B6D3
:100470007047EFF3098000B547F03EFF5DF804EBED
:100480004EF0040E70470000A05B0020985B002037
:100490009C5B002004ED00E020ED00E008ED00E0B2
:1004A0002DE9F00F5FEA510C32D0044600EBCC0589
:1004B00016466746D4ED012A95ED012AD4ED001ABF
:1004C00095ED001A32EEC20A32EE222A71EEC10A0E
:1004D000D6ED003AD6ED012A31EE811A23EEA03A8C
:1004E00022EE804A23EE800A62EEA00A84ED001A12
:1004F00033EE041A84ED012A30EE600A85ED001A0D
:10050000083485ED010A083506EBC3067F1ED1D1FC
:100510004FF6FF7A0AEA430BE146BCF1020F44D9D9
:1005200066464FF000084FEA5C0C444602EBC803F5
:10053000D84493ED001AD3ED010A234603EB0C07D0
:1005400000EBC30500EBC707D5ED001A97ED000AD5
:1005500095ED012AD7ED012A31EE803A31EEC00A3D
:1005600072EE621A72EE822A85ED003A20EE012ABE
:1005700061EEA03A61EE811A20EE200AC5ED012A53
:1005800032EE232A334431EEC00A87ED002A8B4233
:1005900087ED010AD2D3641CA445C7D84FEA590994
:1005A0000AEA4B0BB9F1020FBAD8002919BF491C4E
:1005B0005FEA5101BDE8F00F704700BF90ED002ADF
:1005C000D0ED021A90ED011AD0ED032A32EE610A45
:1005D00072EE211A71EE620A32EE811AC0ED001A33
:1005E00080ED011A80ED020AC0ED030A1030491EA9
:1005F000E4D1BDE8F00F70472DE9F00F5FEA510933
:10060000CC4633D0044600EBCC0516464FEA09072A
:1006100094ED002AD5ED001A94ED013AD5ED012AAA
:1006200072EE610AD6ED004A33EE621AD6ED013A57
:1006300072EE832A24EEA03A23EE814A72EE211A4A
:1006400024EE811A63EEA00AC4ED001A73EE441A78
:10065000C4ED012A71EE200AC5ED001A0834C5ED7B
:10066000010A083506EBC3067F1ED1D14FF6FF7A8B
:100670000AEA430BB9F1020F45D967464FF000086B
:100680004FEA5C0C4FEA080502EBC803D844D3EDEF
:10069000001A93ED011A2B4603EB0C0400EBC30682
:1006A00000EBC40496ED002AD4ED000A96ED013A61
:1006B000D4ED012A72EE203A72EE600A33EE622A1D
:1006C00032EE834AC6ED003A60EEA12A22EE013AEC
:1006D00022EE212A60EE810A86ED014A72EEC32ADB
:1006E0003B4472EE200AC4ED002A8B42C4ED010A9D
:1006F000D2D36D1CAC45C7D84FEA59090AEA4B0B57
:10070000B9F1020FB9D8002919BF491C5FEA51019C
:10071000BDE8F00F704700BFD0ED002A90ED022A2F
:1007200090ED031A90ED013A72EEC20A32EE822A7F
:1007300060EE801A71EE030A33EE411A22EE002AAF
:1007400060EE800A21EE001A80ED002AC0ED010A59
:10075000C0ED021A80ED031A1030491EDCD1BDE84D
:10076000F00F704770B504460D4680782188A38944
:10077000626801280ED02846FFF792FEE078012833
:1007800018BF70BDE28921882846A368BDE8704083
:1007900000F0A0B894ED040A2846FFF72DFFEDE71E
:1007A00010B40180384C446082704FF0000CC3706C
:1007B000B1F5807F3AD008DC102959D020294DD0DE
:1007C000402943D0802939D00BE0B1F5007F25D0F6
:1007D000B1F5806F1AD0B1F5006F0FD0B1F5805F21
:1007E00004D04FF0FF3C10BC60467047012181816E
:1007F000C18126499FED260A816036E00221818170
:10080000C18124499FED240A81602EE00421818169
:10081000C18122499FED220A816026E00821818161
:10082000C18120499FED200A81601EE01021818155
:10083000C1811E499FED1E0A816016E02021818141
:10084000C1811C499FED1C0A81600EE0402181811D
:10085000C1811A499FED1A0A816006E080218181D9
:10086000C18118499FED180A816080ED040ABAE73A
:100870004FF480718181C18114499FED150A816017
:1008800080ED040AAFE700007C1E0A087A160A0809
:10089000000080397C160A080000003A80160A0819
:1008A0000000803A88160A080000003B98160A08E3
:1008B0000000803BB8160A080000003CF8160A0841
:1008C0000000803C78170A080000003D78180A08EC
:1008D0000000803D2DE9F0014E0801244FF0000C8E
:1008E00004EB51076146A6F102082CE061452AD2CB
:1008F00000EBCC0500EBC104D5ED000A94ED000A35
:10090000C4ED000A85ED000AD5ED010A94ED010A57
:10091000C4ED010A85ED010ACC1900EBC4050CEB0E
:10092000070400EBC40495ED000AD4ED000AC5ED00
:10093000000A84ED000AD4ED010A95ED010AC5ED27
:10094000010A84ED010A00EBC104B44400EBCC0CB5
:1009500094ED020ADCED000A891CC4ED020A8CED5C
:10096000000ADCED010A94ED030AC4ED030A8CEDE4
:10097000010AB3F800C089B203EB42034145B5D97F
:10098000BDE8F00170472DE9F0074D0801244FF054
:10099000000C04EB51066146A5F102082BE061450D
:1009A00029D250F8314050F83C7040F8317040F88E
:1009B0003C4000EBC10900EBCC04D9F80470D4F83A
:1009C00004A0C9F804A067608C190CEB060750F866
:1009D000349050F837A040F834A040F8379000EB3E
:1009E000C40400EBC707D4F80490D7F804A0C4F8F7
:1009F00004A0C7F8049000EBC104AC44A76850F809
:100A00003C90C4F8089040F83C7000EBCC0CE768D0
:100A1000DCF80490C4F80C90CCF80470B3F800C073
:100A2000891C03EB42034145B9D9BDE8F007704783
:100A30002DE9F00F01244F0804EB51084FF0000C92
:100A40007C0804BFBDE8F00F7047014600EB880545
:100A5000002614E0BCEB460F11D950F82CA0D1F8B9
:100A60000090C1F800A040F82C900CEB0809D5F8D4
:100A700000A050F829B0C5F800B040F829A0BC4447
:100A800051F8049F50F82CA041F804AB40F82C908A
:100A9000B3F800C003EB4203641E05F1080506F13C
:100AA0000106D7D1BDE8F00F704770477047704717
:100AB0007CB51D4616460C00009001D02044401E17
:100AC000074B7B442A4669460190304601F003F902
:100AD00005461CB10020694601F010F928467CBD8E
:100AE000411200000FB41CB5084B06AA7B446946AE
:100AF0000090059801F0EFF804460020694601F0E7
:100B0000FDF820461CBC5DF814FB00000D1200002F
:100B10000FB47CB50C0009AA009001D02044401EFF
:100B2000084B7B4469460190089801F0D4F80546CB
:100B30001CB10020694601F0E1F828467CBC5DF854
:100B400014FB0000E111000070B5044685690068DF
:100B5000C10601D5302600E02026C00707D070BDB1
:100B6000D4E9012130469047206A401C20626D1E66
:100B7000F6D570BD70B5044685690078C00707D109
:100B800070BDD4E9012120209047206A401C2062DA
:100B90006D1EF6D570BD70B50C460546012A05D010
:100BA0002878800600D5EA69002302E0012305E0E9
:100BB0005B1C934202D2E05C0028F9D1A869E618D8
:100BC000C01AA861286A184428622846FFF7BCFFAB
:100BD00004E0D5E9012114F8010B9047B442F8D3A1
:100BE0002846FFF7C7FF70BD2DE9F04106460024F7
:100BF00010687529314616A510D000F05CFC00285D
:100C000002DA404213A507E031688A0701D512A530
:100C100002E0490704D511A5012401E000F054FCCD
:100C200000210A2206F1240709E0B0FBF2FCB0FB28
:100C3000F2F302FB1C00303078541846491C00289F
:100C4000F3D123462A463046BDE8F04100F045BCCA
:100C5000000000002D0000002B000000200000001C
:100C6000F0B40D460188090502D5214C7C4402E010
:100C70001F4C7C440E34002100F1240608E002F0F1
:100C80000F071209E75D42EA03721B097754491CFA
:100C900052EA0307F3D102780023120704D5702D1E
:100CA00006D009B1022311342246F0BC00F015BC75
:100CB00001231034F8E770B504460D46214610684C
:100CC00000F002FC024629462046BDE870400023A1
:100CD000C6E7D21D22F00703D3E90023C0E703686B
:100CE000126843F0200303600823C3610023B7E7C1
:100CF0000C9206002DE9F05F894604464FF0000A89
:100D0000DFF874B1FB44C0F820A02046E1688847B2
:100D1000002874D0252806D0D4E901219047206A04
:100D2000401C2062F1E700265F462046E1688847C4
:100D30002028054607DB312D05D2781910F8200C44
:100D400008B10643F1E7B00701D526F00406C4F860
:100D50001CA00027C4F818A02A2D09D028462BF083
:100D60000DFC38B304EB8708303DC8F8185019E083
:100D700059F8041B204604EB87029161E16888471B
:100D8000012F054618D1E069002820DA26F0200658
:100D90001DE0D8F8180000EB800005EB400030386B
:100DA000C8F818002046E168884705462BF0E6FBA6
:100DB0000028EED1012F0AD02E2D08D12046E1685F
:100DC00088477F1C0546022F46F02006C4DBA06939
:100DD000002803DA404246F00106A061F00701D086
:100DE00026F010066C2D0BD0682D09D04C2D39D073
:100DF0006A2D35D0742D35D07A2D33D016E038E0F9
:100E0000E1682F4620468847B842054609D16C2F35
:100E100026D04FF48060E1680643204688470546A7
:100E200004E06C2F1AD04FF4807006430DB3A5F187
:100E30004100192802D8203546F400664A46294662
:100E4000204626604E46FFF70FFA80B101280BD0EE
:100E5000F61D26F0070000F1080956E74020E4E7F8
:100E60008020D8E70020D6E706F104094DE72846A0
:100E700052E7206ABDE8F09F9C91060070B50646D7
:100E800000F00AFB0468054630460A22002101F002
:100E90007FF82C6070BD35F0A3BF401ECAB210F8B9
:100EA000011F8A4202D00029F9D10020704740EA90
:100EB000010310B59B070FD1042A0DD310C808C930
:100EC000121F9C42F8D020BA19BA884201D90120D9
:100ED00010BD4FF0FF3010BD1AB1D30703D0521C24
:100EE00007E0002010BD10F8013B11F8014B1B1B5F
:100EF00007D110F8013B11F8014B1B1B01D1921EC9
:100F0000F1D1184610BD40EA0103024630B59B07F7
:100F100010D14FF0013400E008C208C91D1B9D43E9
:100F200015EAC41FF8D013F0FF0102F8011B0DD021
:100F30001B0AF8E711F8013B002B02F8013B05D032
:100F400011F8013B002B02F8013BF3D130BD002228
:100F5000CBB210F8011B994200D1421E0029F8D1F2
:100F60001046704710B5431C02E010F8011B71B128
:100F70008107FAD14FF0013202C88C1A8C4314EA6F
:100F8000C211F9D0C01A0A0603D0C01E10BDC01A83
:100F900010BD0A0401D0801E10BD0902FCD0401E05
:100FA00010BD40EA010370B59B072ED14FF001360A
:100FB000042A2AD308C810C99D1B9D43121F15EA95
:100FC000C61517D0D8B2E1B2401A50EA056110D167
:100FD00098B2A1B2401A50EA05410AD123F07F40ED
:100FE00024F07F41401A50EA052102D1180EA0EBEF
:100FF000146070BDA342DBD018BA21BA884201D96F
:10100000012070BD4FF0FF3070BD0AB9002070BDE7
:1010100010F8013B11F8014B63B1A3420AD1521EF3
:1010200008D010F8013B11F8014B1BB1A34201D1CC
:10103000521EEDD1181B70BD421E12F8013F002B4D
:10104000FBD111F8013B002B02F8013BF9D17047AD
:10105000032A40F2308010F0030C00F0158011F8E4
:10106000013BBCF1020F624498BF11F801CB00F8BC
:10107000013B38BF11F8013BA2F1040298BF00F810
:1010800001CB38BF00F8013B11F0030300F02580CD
:10109000083AC0F0088051F8043B083A51F804CBF4
:1010A000A0E80810F5E7121D5CBF51F8043B40F8BA
:1010B000043BAFF30080D20724BF11F8013B11F8C5
:1010C00001CB48BF11F8012B24BF00F8013B00F809
:1010D00001CB48BF00F8012B704710B5203AC0F093
:1010E0000B80B1E81850203AA0E81850B1E8185029
:1010F000A0E81850BFF4F5AF5FEA027C24BFB1E866
:101100001850A0E8185044BF18C918C0BDE81040D6
:101110005FEA827C24BF51F8043B40F8043B08BFDF
:101120007047D20728BF31F8023B48BF11F8012BA6
:1011300028BF20F8023B48BF00F8012B704702F09F
:10114000FF0343EA032242EA024200F002B84FF0F2
:1011500000020429C0F0128010F0030C00F01B8084
:10116000CCF1040CBCF1020F18BF00F8012BA8BF92
:1011700020F8022BA1EB0C0100F00DB85FEAC17C56
:1011800024BF00F8012B00F8012B48BF00F8012B09
:1011900070474FF0000200B513469446964620393A
:1011A00022BFA0E80C50A0E80C50B1F12001BFF420
:1011B000F7AF090728BFA0E80C5048BF0CC05DF886
:1011C00004EB890028BF40F8042B08BF704748BFD4
:1011D00020F8022B11F0804F18BF00F8012B704748
:1011E00010B5044610F0030F08BF11F0030F40F0D4
:1011F00015804FF0013E121FC0F20E8051F8043BE3
:10120000A3EB0E0C2CEA030C1CEACE1C08BF40F822
:10121000043BF0D0A1F1040102F10402521E08DBEC
:1012200011F8013B002B00F8013BF7D11146FFF705
:101230008EFF204610BD00004FF0013C50F8042BFB
:1012400051F8043B9A4221D1A2EB0C03934313EAD9
:10125000CC1317D150F8042B51F8043B9A4215D106
:10126000A2EB0C03934313EACC130BD150F8042BDD
:1012700051F8043B9A4209D1A2EB0C03934313EAC1
:10128000CC13DBD04FF00000704700BFD01A01BA7A
:10129000B1FA81F101F0180122FA01F0CB40C1F15D
:1012A0002001DBB2C0B2C01A2CFA01F3D11A91436B
:1012B00011EAC311E6D1704710B500F005F8BDE89A
:1012C000104000F039BF0000014900F03BBF0000B2
:1012D0003470022010B503681C1404EB21449BB247
:1012E00089B2194494FBF2F302FB134394FBF2F42A
:1012F00001EB034393FBF2F102FB113193FBF2F399
:1013000001E05B1E11440029FBDB016003EB04409C
:1013100010BDF0B504464FF0FF3585B0006804906D
:1013200060680290A0680390E068019020690090D6
:10133000666906F18040B0F1004F7CD83C22002164
:1013400004A8FFF7C7FF3C22014602A8FFF7C2FF2F
:101350001822014603A8FFF7BDFF411E40F2B55217
:1013600001A8FFF7B7FF0C22074668460021FFF7E8
:10137000B1FF414B00EB8700304400267B4411E075
:10138000511A01910099491C0229009102D00C299F
:1013900008D105E0810705D00199491C019101E0C0
:1013A000401C00960099019A595C9142E8DD009931
:1013B000012906D11C2A04D1810702D00221CDE9DE
:1013C0000016A0F146018B293CD2DDE90061002224
:1013D00002E09F5C521C3944B242FADB012E02DD6E
:1013E000820700D0491E40F2B55340F26D16C21775
:1013F00000EB927292105A4300F0030303FB0622A3
:1014000083070A4400D1521E039E02EB4203049F4D
:1014100006EBC303029EC3EB031306EB8303174ED5
:1014200033441E149BB2C6EB0616C3EB0313B6007F
:1014300007EB830300E005E006EB134666F31F436A
:10144000360C02D0284605B0F0BD80C4029E40C4D0
:10145000039E40C4019E761C44F80C6B009E44E938
:1014600002600720521C92FBF0F600FB162084E875
:1014700023001846E7E70000008C0600A039CEFDE7
:10148000704770477047000010B500F0BBFE001DAC
:1014900010BD00BFC1C6050000487047A4700220FF
:1014A00010B5FFF7F9FF006810BD10B50446FFF74F
:1014B000F3FF046010BD09684A0501D540B27047CA
:1014C000C905FCD500B2704709684A0501D5C0B20C
:1014D0007047C905FCD580B270472DE9F0470D462D
:1014E00099469246044600F124080168880604D50E
:1014F000E06921F01001216000E00120A84201DD37
:10150000471B00E00027A1697A1902EB0900081ABD
:10151000A0612078C00602D42046FFF715FB002604
:1015200008E0D4E901211AF806009047206A401C1F
:10153000761C20624E45F4DB2078C0060AD5204692
:10154000FFF702FB06E0D4E9012130209047206A32
:10155000401C2062381EA7F10107F4DC07E0D4E943
:10156000012118F805009047206A401C2062281EBF
:10157000A5F10105F3DC2046FFF7FCFA2078000610
:1015800002D50220BDE8F0870120FBE71168026860
:10159000006A530501D508700AE0D30501D508801B
:1015A00006E0130603D5C217C1E9000200E0086097
:1015B0000120704770472DE9FF4F0C461E464FF043
:1015C000FF378BB0D2E90001DDF860800A908A46CF
:1015D000C1F30A5505B93D46002108465DF0D6FF26
:1015E000BAF1000F00F4400005DA00EB80004FF480
:1015F000400101EA50004FEA9059B9F1010F00DDB6
:10160000B9460A9850EA4A000ED044F61050A5F2A6
:10161000FF3545432F14B8F1000F1ED07542291E27
:101620001EDDC9F100021CE0B8F1010F4FF000000F
:1016300001D0302103E0F24305E02154401CB042C8
:10164000FBDB30460022002121540B99C1F80880B1
:10165000C1E900200FB0BDE8F08FBD1B6D1CDEE7B7
:101660004A4600DA694206A800F0FEFE06AB93E89F
:10167000070003AB83E8070050460A9902F075F8AB
:101680008DE80700A0F500501F3800900398002D4A
:1016900009DD42F21F014A46084403A90390684647
:1016A00002F0FFFA08E0A0F500504A461F3803A9EF
:1016B0000390684602F01DFB8DE807000004000C53
:1016C00003D04FF0FF30410800E01046B8F1000FA2
:1016D00003D00022009215461EE0751E05D400F0CE
:1016E00095FD303262556D1EF9D5B346012208438F
:1016F00002D000227F1C04E02078302801D1002293
:101700007F1E002A099786D01DE0112D07DA00F010
:101710007DFD303262556D1C50EA0102F5D108435F
:1017200002D00098C8B10EE00021681E05E0235CDD
:10173000625C63542254401E491C8142F7DBAB4675
:10174000A81B401E0990002004F80B000B98099A72
:10175000C0F80880C0E9002B7CE711264FF0000894
:1017600059E72DE9F04F88460446D21D22F00701C3
:1017700091B0D1E90001CDE90A0129F0F5FD024659
:101780000B98C00F01D02D2007E02068810701D5FC
:101790002B2002E0202101EAC000032A099001D099
:1017A000072A05DB03464146204600F097FD0BE182
:1017B0002078800601D5E06900E00620B8F1650FC9
:1017C000814606D0B8F1660F18D0B8F1670F70D116
:1017D00031E00020B9F1110F009001DB112301E08D
:1017E00009F101030AAA01A90CA8FFF7E4FEDDE94B
:1017F0000C70002609F10105834647E001204B46A5
:1018000000904FF000470AAA01A90CA8FFF7D3FEE9
:10181000DDE90DB00C995D46002610B909F1010013
:101820000D18B9EB050003D4C0F1FF3609F101052D
:10183000A5EB09002BE0B9F1010F01DA4FF0010926
:101840000020B9F1110F0090484601DD112300E09E
:1018500003460AAA01A90CA8FFF7ADFEDDE90C704A
:101860004D4600268346207800070AD4AB4500DAAF
:101870005D4601A8012D04DD411911F8011C302934
:1018800007D04F4502DA17F1040F04DA012082462F
:101890000FE06D1EEEE7002F02DCED1B3E4403E07F
:1018A000781CA84200DD7D1CB81B00F1010A4FF036
:1018B00000472078000703D4AA4501DB4FF0FF3A28
:1018C0000021B7F1004F0DF143088DF8431024D0EB
:1018D00002202B23002F01DA7F422D230A21021E32
:1018E000A0F1010000DC5FB197FBF1FC97FBF1F286
:1018F00001FB1C7C17460CF1300C08F801CDEEE71B
:10190000A8F1010003702188090501D5452100E0F7
:101910006521A0F1010800F8011C09980FA9A1EBAD
:101920000807FF1D00B10120411901EBEA70A16910
:101930003844081A401EA0612078C00602D4204610
:10194000FFF702F9099828B1D4E901219047206AEC
:10195000401C20622078C00622D52046FFF7F4F80C
:101960001EE0002E04DBB34502DD01A8805D00E02F
:101970003020D4E901219047206A401C2062761C67
:10198000AAF101005FEA000A0AD100F03BFCC0683E
:101990000168405CD4E901219047206A401C206224
:1019A000281EA5F10105DCDC07E0D4E9012118F8C7
:1019B000010B9047206A401C2062381EA7F10107E6
:1019C000F3DC2046FFF7D6F8032011B043E6000011
:1019D0002DE9F04F04460D46D21D22F0070089B0D4
:1019E000D0E900974846394629F0BEFC0246F80F78
:1019F00001D02D2307E02068810701D52B2302E0C9
:101A0000202101EAC0038DF820300BB1012000E055
:101A10000020032A824601D0072A04DB29462046FB
:101A200000F05CFC3FE12078800601D40D2500E049
:101A3000E569C7F30A560D2D49DA00214FEA175B15
:101A400008465DF0A3FD002F00F4400007DA00EB2C
:101A500080004FF4400100EBD07001EA6000811576
:101A6000012901DD4FF0FF3100224FEA850CBCF166
:101A7000180F06D31346ACF118004FF08052C24045
:101A800003E04FF4801323FA0CF30CF10C0CBCF1BF
:101A9000200F04D3ACF1200C09FA0CF001E007FA96
:101AA0000CF000294FF0004801DD18B90FE00ED10D
:101AB00040450CD319EB02095F4121B9404502D1E1
:101AC0009F4329EA0209BBEB175F00D0761C2088F0
:101AD000000502D57B48784402E07A4878441938FA
:101AE00008AA302302F80A30037C0AF10101002E13
:101AF0000AF1020A53546A4602DC4FF0300101E059
:101B00004FF031014FF001088DF8001002D0A6F21D
:101B1000FF3603E059EA470100D06B4E002D02DC8E
:101B20002178090704D54FF002082E218DF8011005
:101B3000C44600210BE0C7F303433F01C35C491CCB
:101B40006D1E02F80830052908F1010801DA002DA0
:101B5000F1DC00210CE000EB1973491C1B786D1EB1
:101B6000082902F808304FEA091908F1010801DADA
:101B7000002DF0DC21688B0602D516E0A8F10108E3
:101B8000E04505DD02EB080313F8013C302BF5D0EE
:101B9000B8F1000F09DD02EB080313F8013C2E2B0E
:101BA00003D1090701D4A8F10108002D05DD3E216C
:101BB00002F808106D1E08F10108407C002E02F8A2
:101BC000080008F1010804DA2D20764202F8080026
:101BD00002E02B2002F808000A214FF47A708642B6
:101BE00008F101080BDB96FBF0F3303302F8083004
:101BF00096FBF0F308F1010800FB136601E0642E88
:101C00000CDB642096FBF0F3303302F8083096FBCF
:101C1000F0F308F1010800FB136601E00A2E06DB71
:101C200096FBF1F0303002F8080008F1010896FB4D
:101C3000F1F001FB1060303002F80800A16908F1F2
:101C4000010808EB050202EB0A00081AA0612078DF
:101C5000C00602D42046FEF777FF216A08AE01EBEA
:101C60000A00206204E0D4E9012116F8010B904734
:101C7000BAF1010AF7D22078C00602D52046FEF755
:101C800063FF6E4609E016F8010B3E280FD0D4E939
:101C900001219047206A401C2062B8F10108F2D26D
:101CA0002046FEF767FF09B00320BDE8F08F206AE9
:101CB0002844206203E0D4E90121302090476D1EC2
:101CC000EBD3F8E78984060002FCFFFF01694A1C98
:101CD00002610878704700B58FB0CDE9013100216D
:101CE000059105497944CDE9031011466846FFF78F
:101CF00001F80FB000BD0000E5FFFFFF0A6802F821
:101D0000010B0A607047D1E900239A4202D2531CAA
:101D10000B601070704710B5436913B1AFF30080CA
:101D200001E0FEF738FF012010BD127800F1240118
:101D30000A7000224A700122EDE711684FF0FF326D
:101D4000E9E700002DE9FF5F15468A460446DFF803
:101D5000AC80F8440027D8E900103E46CDE90010D9
:101D600010E03AF816106A4602A800F0C7FD411CC0
:101D700007D02178890603D5E269391891420DD838
:101D80000744761C2078800602D5E069B84205DD5C
:101D9000AE42E6DB3AF816000028E2D1A069C01B8B
:101DA000A0612046FEF7D0FED8E90010CDE9001072
:101DB000002017E03AF818106A4602A800F09EFDCD
:101DC000B0F1FF3F81460BD000250DF1080B05E077
:101DD000D4E901211BF8050090476D1C4D45F7D350
:101DE00008F10100B0428046E4DB206A38442062FA
:101DF0002046FEF7BFFEBDE8FF9F000022820600DE
:101E00002DE9F0418046D21D22F007020025D2E9DB
:101E10000002F52915A614D0011E72F1000106DAA0
:101E20000023D0EB030063EB020211A608E0D8F810
:101E300000108B0701D50FA602E0490701D50EA6B9
:101E400001251146002408F1240704E000F0DEF922
:101E500030323A55641C50EA0102F7D12B46324623
:101E600021464046BDE8F041FFF737BB00000000C7
:101E70002D0000002B0000002000000030B40021E5
:101E800000F1240408E002F00705D208303542EAE8
:101E90004372DB086554491C52EA0305F3D1046818
:101EA000002310A2250707D5A40600D421B1C469D8
:101EB00001230DA2641EC46130BCFFF70EBB10B538
:101EC000044621461068FFF7FFFA02462046BDE8A7
:101ED00010400023D2E7D21D22F00701D1E90023F0
:101EE000CCE7000000000000300000000FB4002329
:101EF00000B589B00CA900910B99CB60214B7B44B4
:101F00000693214B7B44079304236FF00042CDE9F5
:101F100001321E4A7A446B460892024600205DF068
:101F20002DFC09B05DF814FB70B506464FF0FF308C
:101F300015460C46324686B00091CDE9010169464E
:101F40000020049004A8FFF7D1FF0246049821184E
:101F500025B108B1084600E0204628600498002812
:101F60000DD0002A02DD0098884208D03246081BB6
:101F700069460094CDE9010404A8FFF7B7FF06B055
:101F800070BD0000870400009F040000B103000042
:101F90002DE9F04791460F4680460446002614F886
:101FA000015B2DB1FFF770FA0068405DC007F6D104
:101FB0002B2D02D02D2D18D0641E4A4639462046BE
:101FC00000F002FA27B13968A14201D1C7F80080B8
:101FD0004FF0020471050BD54042002803DDFFF7E6
:101FE0005BFA0460A007BDE8F08746F48066E4E78A
:101FF0000028F8DAFFF750FA04606FF00040F2E7CB
:1020000010B542485421FFF7C4F841485421FFF766
:10201000C0F840485421FFF7BCF83F493B483C4AD0
:102020003F4B08603D490A603A491960531C0365FB
:10203000481C1065012008653B48344A39A17844A2
:1020400000F0C0FB20B9384878440A3800F076FC2C
:1020500037482F4A35A1784400F0B4FB20B9344802
:1020600078440A3800F06AFC32482A4A2FA17844A2
:1020700000F0A8FB20B92F4878440A3800F05EFC35
:1020800040232248DC000021224600F078FB20B1EA
:1020900025487844543800F051FC1D48224640231E
:1020A000002100F06CFB20B121487844543800F046
:1020B00045FC184822461023002100F060FB002850
:1020C00006D01C487844BDE81040563800F036BCB5
:1020D00010BD104870B5006D20F001040B4800F0F1
:1020E000E7FB0B4800F0E4FB0A4800F0E1FB09E0E5
:1020F000206D20F00105204600F0DAFB204638F084
:102100001EFC2C46002CF3D170BD0000386F02205D
:102110008C6F0220E06F02209464002098640020FD
:102120009C6400207200000007F5050077000000A5
:10213000F5F40500E4F40500014900F007BC0000D7
:102140006070022070B50C46016800204A1C3ED029
:102150003C22B1FBF2F302FB1313B1FBF2F123605B
:10216000B1FBF2F302FB1313B1FBF2F1182263602F
:10217000B1FBF2F302FB1313B1FBF2F146F2E032D2
:102180000A440721A360B2FBF1F301FB132140F2E3
:10219000B553B2FBF3F5A161B2FBF3F103FB1522DA
:1021A0008900B2F5B77F08D39B10521EB2FBF3F53E
:1021B0002944B2FBF3F503FB15220F4BE261616189
:1021C00089077B440CD03B2A0AD3521C08E02C21FF
:1021D0002046FEF7DEFF0120E0600AE0521A401CB4
:1021E000195C9142FAD9521CC4E903204FF0FF3028
:1021F0002062204670BD0000BA7D0600004870478E
:10220000A470022000487047C470022030B5B0F1BD
:102210000A024FEA900E71F100034EEA817EB0EBA4
:102220000E0061EB91014FEA101E4EEA017E10EBA9
:102230000E0041EB11114FEA102E4EEA016E10EB29
:102240000E0041EB11214FEA104E4EEA014E10EB09
:102250000E0041EB1141401841F100014FEAD0005E
:1022600040EA41704FEAD10110EB80054FEA81044A
:1022700044EA907444EB01046D1944EB0404521BCE
:10228000A3414FF0000348BF0A3200D530BD401CC7
:1022900041F1000130BD00001FB584B000200A9C50
:1022A00006AB04AA02A90094AFF3008018B1DDE9DF
:1022B000020108B010BD0348204000F035FF0020A7
:1022C0000146F6E70000207C10B50446FFF7DCF875
:1022D0000068005D00F0010010BD00002DE9F04134
:1022E0001F46044603260168072A01F4006004DB48
:1022F00008B116A505E016A503E008B115A500E094
:1023000015A521F010002060A069C01EA0610FB1CA
:10231000401EA0612046FEF717FC4FB1D4E9012111
:1023200038469047206A401C2062C01C206206E0AC
:10233000206AFAE7D4E9012115F8010B9047761ECF
:10234000F8D22046FEF716FCBDE8F0814E414E0063
:102350006E616E00494E4600696E660010B54369B5
:1023600013B1AFF3008001E0FFF7ECFC012010BDDA
:10237000128800F1240182840022C2840122EDE748
:1023800011684FF0FF32E9E7426842B1016811F885
:10239000013B23B1521EC0E90012184670470121CB
:1023A000C160881E704742685AB1C368016843B96A
:1023B00083688B4205D0491E521CC0E900120020E0
:1023C00070474FF0FF3070472DE9F05F82461546A9
:1023D0008B4600270AF10104B9460078302801D065
:1023E0009DB113E014F8010B0127782803D0582879
:1023F00001D045B10AE00DB1102D07D1002714F826
:10240000010B102502E0082500E00A250026B04651
:102410000EE005FB080005FB06F101271FFA80F816
:1024200001EB1046B6F5803F00D3B94614F8010B16
:10243000294600F0FBFA0028EBDABBF1000F05D0CB
:102440000FB1641E00E05446CBF80040B9F1000F14
:1024500006D0FFF721F802210160C81EBDE8F09FF9
:1024600048EA0640FAE700002DE9F04781461646A3
:102470008AB0334878440DC88DE80D003048784460
:10248000801C03AC0DC884E80D0041F69B30084465
:10249000372190FBF1F290FBF1F5A5F1800501FBEE
:1024A00012041B3C02D56442012000E00020DFF84A
:1024B00090A080460027FA44AAF1BE0A0DE0E0078A
:1024C00009D03246684607EB47010AEB810101F06B
:1024D00010FC8DE8070064107F1C002CEFD1184F12
:1024E0007F44AC3F18E0E80714D007EB04100DF16F
:1024F000180A90E80E008AE80E00C068F04201D188
:1025000098190890324606A903A801F0F2FB03AB24
:1025100083E807006D10641C002DE4D13246694643
:10252000B8F1000F03A802D001F0BBFB01E001F0FD
:10253000E0FBC9E90001C9F808200AB0BDE8F0874E
:10254000B47C060070B50D4601461446D368506948
:102550002A462BF0BBF9002807DA411C07D0E168B6
:1025600020F0004041F48041E160281A70BD20460F
:1025700000F038FD4FF0FF3070BDC16800220260EE
:1025800021F4805141F0400111F4C06FC16001D0CD
:102590008260704702694168891AC269891A81603C
:1025A00070472DE9F0470446C06840F48000E060C1
:1025B000010312D520F40020E060810606D4E26A0F
:1025C00061688A4200D80A46511A216040F400101E
:1025D000E06094F82500BDE8F08720F40010E0608A
:1025E000800602D5204600F054FDE06842F28101E9
:1025F0004FF0FF390140012903D0204600F0F2FCE2
:10260000B6E02168002600290ADAC94340F4805068
:102610002160C4E902606068411C61600078DAE70B
:1026200044F2400108420CD020F4A04040F04000A9
:102630002660E06021696068401AE169401AA06084
:1026400096E0216991B9C00310D4E0693CF073FAB7
:102650002061B0B1E06840F4006010F4407FE060B9
:1026600002D140F48070E06020696060E068D4F8D6
:1026700014A0C1061AD5C0030ED5204600F0E6FC12
:1026800014E004F1240020610120E061E06820F4FE
:10269000407040F48060E6E721696068401AA169F3
:1026A000014450462BF035F90028A6DBE068C00352
:1026B0002AD56168E06A884200D808462169451A2F
:1026C000E069471B1BD02046D4F8188000F0BEFC00
:1026D00008EB05015046C4F818802BF01AF90028C1
:1026E0008BDBE06840F40030E060000202D5A069B6
:1026F0002844A061E1692069C91B45180DE0204606
:1027000000F0A4FCE769F5E725696168D4E90607EC
:10271000491BE56208446560A061E06820F0100094
:1027200010F4C06FE06002D0204600F0D3FCE068F7
:1027300040F48050C4E90260000205D52069E062DF
:1027400060606FF0010046E7224639462846FFF7F1
:10275000F9FE411C0CD02918E16258B1401E2060DE
:10276000681C6060E06840F40030E060287832E780
:10277000484630E765602046FFF7FFFEF8E770B592
:10278000C468A50713D0650211D4B2F5807F09D0C3
:10279000B2F5007F06D0B2F5806F08D1012300F1B9
:1027A000240106E05D1E6FF07F46B54201D3012093
:1027B00070BD0161C361416024F470611143C16067
:1027C000002070BD2DE9F0410C4607461646104624
:1027D00000F06EF82078611C61280AD0722802D0BF
:1027E00077283CD102E00125002405E002250424DD
:1027F00002E0082448F2020511F8010B2B2806D04C
:10280000622809D011F8010C74280AD00BE045F0B9
:10281000030544F00204EFE745F0040544F0010429
:10282000EAE744F01004384621462AF0FFFF411C35
:1028300015D00021316171604FF40071F560F161D4
:102840007061200704D530460222002100F04EFBC3
:10285000306D40F0010030653046BDE8F081002069
:10286000FBE72DE9F0410D460646104C206DC107EF
:1028700004D0410804D020F00104F7E722460EE01E
:1028800054203CF058F907000ED0206D47F00101AC
:102890000843542120653846FEF77BFC3A4629461A
:1028A0003046BDE8F0418DE70020D6E7386F0220C2
:1028B0002DE9F04704464FF000094FF0FF37C56897
:1028C000D4E90486A80707D0204600F0BFFB3046B5
:1028D0002AF098FF002802DA3846BDE8F08728057C
:1028E00002D5404638F02BF84C212046FEF751FC2B
:1028F000206D20F0010020654846EEE770B51646D1
:102900000C460546FEF7C0FD036893F80101012857
:1029100006D0FF2C0FD8185D68B101202C7070BD57
:10292000D3F807013246214603F207130344284631
:10293000BDE8704018474FF0FF3070BD10B500F093
:10294000FBFBBDE8104000F0EABB0000F0B50D460F
:10295000044685B0FFF756FC006994E8C01063692F
:10296000016803F26C730A188168CDE90363CDE94D
:1029700001C7E36801440093C66A2369406A03FB08
:102980000613A16901FB0022284603A100F038F8D4
:1029900005B02846F0BD000025732025732533645B
:1029A00020252E32643A252E32643A252E326420B8
:1029B00025640A007546FFF721FCAE46050069460E
:1029C000534620F00700854618B020B5FDF7CEFC31
:1029D000BDE820404FF000064FF000074FF0000820
:1029E0004FF0000B21F00701AC46ACE8C009ACE8A1
:1029F000C009ACE8C009ACE8C0098D4670470000CA
:102A00000FB41CB5084B06AA7B4469460090059894
:102A1000FFF761F9044600206946FFF76FF9204689
:102A20001CBC5DF814FB0000F1F2FFFF3A2800D255
:102A3000303820F02002412A01D3A2F13700884229
:102A400001D34FF0FF3070472DE9FF4F064689B0A4
:102A50000878FF2806D0491C2D2805D000244FF007
:102A6000000908E000200CE00124F8E709EB8903E5
:102A7000491C00EB43090878FF28F7D114B1C9F1CC
:102A800000008146107800252C46AA4629462D28AC
:102A900001D02B2804D1521C2D2813D000208246AF
:102AA0008B461078FF280FD04FF0000C0A21521CE3
:102AB000A5FB017804FB018105FB0C11C5194BEB4B
:102AC0000104EEE70120EAE7002108465CF05EFD24
:102AD000BAF1000F02D000EB80004008C0F381582B
:102AE000B8F1010F01DD4FF0FF380C9809EB00073A
:102AF00055EA040009D04FF0020917F5FA7F0BDA06
:102B00004FEACA70C6E900B012E04FEACA70C6E9DF
:102B100000B00DB0BDE8F08FB7F5FA7F0DDDF048DD
:102B20007844D0E90010C6E9001040EACA7070602D
:102B3000FEF7B2FCC0F80090EBE7391E02DAC8F1EC
:102B4000000200E0424600DA794206A8FFF78CFC5A
:102B500006AB93E8070003AB83E8070044F23E00AE
:102B60005BEA04010090584604D144F21E012C4651
:102B70005D460091210C0904014306D1009924040B
:102B800044EA15442D041039009104F07F410143BB
:102B900006D10099240244EA15642D0208390091F7
:102BA00004F07041014306D10099240144EA1574F0
:102BB0002D01091F009104F04041014306D1009905
:102BC000A40044EA9574AD00891E009104F0004110
:102BD000084304D100986D196441401E009042469C
:102BE0006846002FCDE9014503A902DD01F095F803
:102BF00001E001F06AF8BAF1000F04460D4601D079
:102C000084F0004440F2FF7724F00040284303D0D2
:102C1000C4F30A50B84212D1FEF73EFCC0F800904F
:102C2000C4F30A50B8420AD1AE487844D0E9001043
:102C3000C6E9001004F000410843706069E7C6E986
:102C4000005466E72DE9FF4F1F464FF0000A4FF092
:102C5000FF38454691B0D7E90146CDF83CA0FFF7D3
:102C6000D1FAC0680168405C1090B96912986D1C77
:102C70008847396A814688470028F6D1B9F1FF3F75
:102C80000AD0002E24F4D06411DDB9F12B0F08D046
:102C9000B9F12D0F0BD102E0404615B03AE744F4EC
:102CA0008064B96912986D1C8847761E814660055C
:102CB00004A901D52D2000E02B20002E01F1010BED
:102CC0000DF130088DF810003FDDB9F1690F08D023
:102CD000B9F1490F05D0B9F16E0F02D0B9F14E0F1D
:102CE0001CD13B4601A8009580E85002DDE9121294
:102CF0006FF002005CF046FDC11CCED10EE0B96958
:102D000012986D1C884781461398761E44F400740F
:102D100005600F98401C002E0F9016DDB9F1300FA2
:102D2000EDD0B9F1780F02D0B9F1580F0DD10F984D
:102D300001280AD13B46CDE90054DDE91212001FFB
:102D400002965CF01DFDC11CA7D1109989453ED1AA
:102D500044F0800406E01399681CAAF1010A44F4C7
:102D600000740860B9696D1C1298761E8847302877
:102D70008146F0D02BE01099894505D1200603D477
:102D8000761E44F0800418E0484629F0F7FB08B3AB
:102D9000761E0DF123018B4544F4007408D2A9F18D
:102DA00030000BF8010B200607D5AAF1010003E063
:102DB000200602D40AF101008246A00502D513992B
:102DC000681C0860B96912986D1C88478146002EFE
:102DD000D1DC53E0002E51DDB9F1650F02D0B9F11D
:102DE000450F4BD1A00549D5B9696D1C1298761EC7
:102DF00024F440748847002E81460CDD2B2804D033
:102E0000B9F12D0F07D144F48074B96912986D1C83
:102E10008847761E8146E00501D52D2100E02B2153
:102E200008F8011BCDF8008021E0761E0DF1390174
:102E3000884544F400740CD2A9F1300010F0FF0072
:102E400088F8000002D10099884509D908F10108E5
:102E500006E0E00501D5244801E042F20F70824609
:102E6000B96912986D1C8847814613980560002E39
:102E700004DD484629F082FB0028D6D1F969129872
:102E80008847FF2053468BF8000088F80000002098
:102E90000A900B9004AA0CA90AA8FFF7D5FDA0057B
:102EA00002D46FF00100F8E614F0240F0AD0E00716
:102EB00014D13868DDE90A12031D3B600068C0E9DF
:102EC00000120BE00AA9684629F02EFAE00705D1A6
:102ED0003868009A011D3960006802602846DCE607
:102EE0005CA7060052A60600F1D8FFFF2DE9F041CD
:102EF000044616460D464769007B80072ED03846AB
:102F00002AF090FC50BB3EB3012E02D0022E25D1F8
:102F100004E0204600F05CF905441DE038462AF044
:102F20007DFCE168002841F01001E16005DA2046EF
:102F300000F058F80120BDE8F081C9030BD56268A4
:102F4000E16A914200D81146A26911442269891AA6
:102F5000814200DD08460544002D01DA0220EAE73F
:102F6000E16A6068E268814206D29103E06203D5BB
:102F700022F4003141F01002A6690027AE4213DCB2
:102F8000E16A814201D90B4600E0034603EB060CDF
:102F90002369ACEB030CAC4506DD814201D98C46BC
:102FA00000E084469C4505D1A760276042F02000E0
:102FB000A5620DE0AD1BE669AE1B8142A66000D99B
:102FC0000846C01A281A20605819606022F02000B4
:102FD00003490840E060002084F84870ABE7000037
:102FE000BFCFD7FFC16821F4001141F08001C1605B
:102FF00000218160016070472DE9F0478146144649
:103000000E464FF0FF383248D5685769054209D05F
:103010003846A1692AF07DFC002811DB2C48C0430A
:103020000540E5602B463246494638462AF07FFC8B
:10303000A16920F00042B21A11440028A16103D016
:103040002046FFF7CFFF4046BDE8F08770B5044645
:103050000569C06A6168884200D80846E16821F4C1
:103060002011E160C90312D5A84208D02246411BB5
:103070002846FFF7C1FF10B14FF0FF3070BD0020B0
:10308000E562C4E90150E06820F48030E06000208F
:1030900070BD10B50446C06820F02000E060A16A51
:1030A000A06988420DD02046FFF7D0FFE06820F4E9
:1030B000405040F01000E060A06AA0612069E0622A
:1030C000606044F24001E0688843E06010BD0000A9
:1030D0001000020070B5054640F202260A4C0FE0CF
:1030E00094F85000C00708D0AC4206D0E06836EA39
:1030F000000002D1204600F039F8206D20F00104D4
:10310000002CEDD170BD0000386F022010B50446D0
:10311000AFF300802046BDE81040FDF713B900284A
:1031200001D02AF079BB704710B500F08BF8BDE8EC
:103130001040FFF7F4BF000010B5014602A000F0F8
:1031400068F8012010BD00005349475254524544CD
:103150003A2052656469726563743A2063616E2730
:1031600074206F70656E3A200000000070B5044650
:10317000C068810713D0800601D5A56A04E0A16963
:10318000606808442169451A2046FFF75FFF002266
:10319000064629462046FFF7A9FE304670BD0020AE
:1031A00070BD70B510B1BDE87040DFE70025074C79
:1031B0006E1E07E02046FFF7D9FF00B13546206DAF
:1031C00020F00104002CF5D1284670BD386F022094
:1031D00010B50146C268900703D0900607D5886AEB
:1031E0000AE0FEF759F901210160881E10BD8B69C4
:1031F000486818440B69C01A91F848301BB191F81F
:103200004910401A10BD1103FCD50028FADD401EFC
:1032100010BD70B505460C460A2000E06D1C2AF072
:10322000A9FB35B128780028F8D102E0641C2AF007
:10323000A1FB14B120780028F8D1BDE870400A2025
:103240002AF098BB10B5022803D0410103D50DA187
:1032500012E0002010BD010101D50FA10CE0C1005A
:1032600001D511A108E0810001D512A104E04000C0
:1032700001D513A100E0002115A0FFF7CAFF01202E
:1032800010BD0000496E76616C6964204F706572F4
:103290006174696F6E00000044697669646520425C
:1032A00079205A65726F00004F766572666C6F7791
:1032B00000000000556E646572666C6F7700000058
:1032C000496E657861637420526573756C74000093
:1032D0005349474650453A2041726974686D657498
:1032E000696320657863657074696F6E3A200000C9
:1032F0002DE9FF4F1F464FF03C0987B04FF00042C9
:10330000DDE9141001F10108DDF858A002EA40508F
:103310000390002005908346054604460490B96951
:10332000461E08988847AAF1010A0290BAF1000FD8
:103330003BDD02982E2815D01021FFF777FB0028DF
:103340002EDB4FF0010B0599014317D0B9F1000FA7
:103350000BDB4A46C11700F0F5F905430C43A9F110
:10336000040905E0012004900BE008B145F00105D7
:1033700001200590049820B9361D02E0049800B1A0
:10338000361FB969089808F101088847BBF1000F9A
:10339000AAF1010A0290C9D00999C1F80080C5E7D5
:1033A0000298702808D0502806D0F96908988847F4
:1033B000BBF1000F14D04FE0002002900120BBF1C0
:1033C000000F049009D0B969089808F101088847EE
:1033D000AAF10109B9F1000F07DCF96908988847DB
:1033E0006FF001000BB0BDE8F08F2B2804D02D2822
:1033F0000CD14FF0FF300490B969089808F101082A
:103400008847A9F10109B9F1000FE6DD411CE4D0BC
:103410000A21FFF70BFB0028DFDB029908F1010806
:1034200001EB810100EB41000290B96908988847DF
:103430000A21FFF7FBFA099AA9F10109B9F1000F76
:10344000C2F8008001DD0028E7DAF96908988847AA
:103450000499029800FB016655EA040004D004F0C8
:103460004041090002D006E0039898E0A40044EA35
:103470009574AD00B61E04F00041080002D16D192C
:103480006441761E159810F0240F03D04FF00B09FD
:103490005C4803E04FF028096FF07D0082465645F6
:1034A00007DAAAEB06018944B9F1410F01DD4FF0BB
:1034B000410901200021A9F1010200F043F902466F
:1034C00028400B462140084301D0012100E00021A3
:1034D000501E029143F1FF3128402140084301D0A2
:1034E000012000E000200299834651EA0B014FD0F1
:1034F000002108465CF04AF8039900F4400039B115
:1035000000EB80004FF4400100EBD07001EA600056
:103510008015012802DD4FF0FF3000E013D0401C81
:1035200036D0029860B3BBF1000F0CD14A4601209F
:10353000002100F007F928402140084301D0012074
:1035400000E00020E0B101204A46002100F0FAF836
:10355000034640190A4661412D1A8C4111D3B9F135
:10356000400F09DD159810F0240F02D0AAF134069F
:1035700003E0AAF1170600E0761C00254FF0004496
:1035800006E05B1E42F1FF3220EA030521EA020455
:10359000CAF10100B04206DA1B49039808430190C2
:1035A000002000900EE0039AC4F3D321E80A0A43F6
:1035B000164940EA44500A433146CDE900026846C4
:1035C00028F034FF159810F0240F0BD01598C00781
:1035D00015D13868DDE90012031D3B600068C0E9C1
:1035E00000120CE002A8694628F09EFE1598C0075C
:1035F00005D13868029A011D3960006802604046B2
:10360000F0E6000002FCFFFF0000F07F0000F03F4A
:103610002DE9FF4F92461D4685B04FF00041DDE990
:10362000124BDDE914727F1E01EA4B50414940F014
:10363000FF4940EA0108002122F0200049280491B6
:1036400002D04E2828D04CE03BA0012607C88DE8C8
:103650000700A9690698641C88477F1E014606D4A6
:103660001DF8060018B121F0200181420BD0E96954
:1036700006988847032E34D0082E32D06FF0010010
:1036800009B0BDE8F08F761C032E01D0082EE0D1E2
:10369000601CCAF80000DCE7A9690698641C88472A
:1036A0007F1E2AD420F02000412826D1A96906983F
:1036B000641C88477F1E20D420F020004E281CD197
:1036C000A9690698641C88477F1E48F4002849F4BD
:1036D0008009CAF8004001D4282806D0E969069874
:1036E00088475FEACB7012D022E0A9690698641C73
:1036F00088477F1E01D4002803DAE96906988847C5
:10370000BCE72928F1D1641CCAF80040E9E71BF0A6
:10371000240F07D028680499031D2B600068C0E9B6
:10372000001805E02868021D2A600068C0F80090B3
:103730002046A5E70000F07F494E46494E495459BE
:1037400000000000B2F120030AD5C2F1200301FA03
:1037500002F120FA03F300FA02F041EA0301704794
:1037600000FA03F14FF0000070475FEA400C08BF19
:1037700091F0000F4FEA8C234FEAC12243EA5151E6
:103780004FEA1C5018BF00F5F0404FEA300018BF58
:1037900041F000415FEA6C5C00F02980BCF1FF3F22
:1037A00008BF40F080407047130C06BF12044FF072
:1037B000100C4FF0000C130E04BF12020CF1080C99
:1037C000130F04BF12010CF1040C930F04BF9200FD
:1037D0000CF1020CD30F04BF52000CF1010C114686
:1037E0004FF00002A0F11F00A0EB0C00704711F099
:1037F000004F08BF704731F000413FF4D5AF0B0CCC
:1038000006BF09044FF0100C4FF0000C0B0E04BF64
:1038100009020CF1080C0B0F04BF09010CF1040C98
:103820008B0F04BF89000CF1020CCB0F04BF4900C1
:103830000CF1010CCCF12003A0EB0C0022FA03F3F5
:1038400002FA0CF241EA030100F10100704720F096
:103850007F4C80EA030023F07F47ACEB070303F5BE
:103860007C5300F0004003F1FF032DE980494FEA4B
:10387000154B09B44FEA144325EA0B4E24EA0348DA
:103880000FF2042606EB132749083E785FEA32025E
:1038900003FB0667C7F5000707FB06F64FEA543738
:1038A0004FEAD64606F1020607FB066CCCF1005C37
:1038B0004FEA1C472CEA074C07FB06F40CFB06F505
:1038C00004EB15464FEA961634BF00204FF0004037
:1038D0004FEAD13706FB07FC4FEA1C4C0CFB0BF7F9
:1038E000D21B03FB0CF761EB07010CFB0EF7B0EBEF
:1038F000074072EB17420CFB08F734BFA2EB0742FC
:10390000B2EB074261EB17414FEA0C444FEA9107D3
:1039100006FB07FC4FEA1C4C0CFB0BF7B0EBC74057
:1039200072EB573203FB0CF734BFA2EBC742B2EB8A
:10393000C74261EB57310CFB0EF7B0EBC70072EBDF
:1039400057720CFB08F734BFA2EBC702B2EBC702F9
:1039500061EB5771039F4FEA816141EA921104EBD9
:10396000CC044FEAD1374FEA826206FB07FC42EAF9
:1039700090124FEA80604FEA1C4C0CFB0BF7D21BF5
:1039800003FB0CF761EB07010CFB0EF7B0EB0740F4
:1039900072EB17420CFB08F734BFA2EB0742B2EB05
:1039A000074261EB17414FEA8C554FEA910704EB50
:1039B0009C2406FB07FC4FEA1C4C0CFB0BF7B0EBFE
:1039C000C74072EB573203FB0CF734BFA2EBC74280
:1039D000B2EBC74261EB57310CFB0EF7B0EBC700FF
:1039E00072EB57720CFB08F734BFA2EBC702B2EBC5
:1039F000C70261EB577115EB4C254FEA816141EA33
:103A000092114FEA82624FEAD13742EA901206FBE6
:103A100007FC44F100044FEA80604FEA1C4C0CFBA9
:103A20000BF7D21B03FB0CF761EB07010CFB0EF746
:103A3000B0EB074072EB17420CFB08F734BFA2EB68
:103A40000742B2EB074261EB174115EB1C154FEA39
:103A5000813141EA92414FEA823242EA90424FEA92
:103A600080304FEA0C7644F1000448EA03434EEA02
:103A70000B484FF0000EB2EB080C71EB030724BFAC
:103A8000624639464EEB0E0E4FF0000B00185241C5
:103A900049414BEB0B0BB2EB080C71EB03077BF1CD
:103AA000000B24BF624639464EEB0E0E4FF0000B62
:103AB0000018524149414BEB0B0BB2EB080C71EB78
:103AC00003077BF1000B24BF624639464EEB0E0E16
:103AD00051EA020718BF46F0010616EB0E7655F1C3
:103AE000000254F1000103D5BDE88901BDE800885A
:103AF000BDE88901BDE80048B619524141EB01011A
:103B0000A3F10103704780807F7E7D7C7B7A79788A
:103B1000777676757473727171706F6E6E6D6C6C92
:103B20006B6A6A6968686766666564646363626134
:103B30006160605F5F5E5E5D5D5C5C5B5B5A5A59B5
:103B40005958585757565655555554545353525221
:103B50005251515050504F4F4F4E4E4D4D4D4C4C79
:103B60004C4B4B4B4A4A4A494949484848474747C2
:103B700047464646454545444444444343434342FF
:103B8000424242414141000046EA0646A3F57053D5
:103B90004FEA164646EA42564FEAD22242EA4152DC
:103BA00010B54FEAD121A3F1010300F017F820F07E
:103BB000004000F1010C00F0004701EB00501146FD
:103BC000BCF5006F40EA070000D210BD02484FF07C
:103BD000000140EA070010BD0000F07F002B26D452
:103BE000770021D01CB54FEA370703B44FF010001F
:103BF0004FF010015BF0CAFC0FBCBDE810400BF1A8
:103C0000010BBBF1010F08BF5FEA170722BF12F1DA
:103C1000010211F101014FF0004143F1000300F0F6
:103C2000004043EA00007047F9D35708DAE746EA54
:103C3000064613F1400F4FEA16461FDD13F1200F21
:103C4000DFBF16430A46002120335B42C8D0C3F1D0
:103C5000200746EA064602FA07F74FEA164646EA02
:103C60000706C3F1200722FA03F201FA07F721FA47
:103C700003F14FF0000342EA0702B1E746EA020609
:103C800046EA06464FEA164646EA0106BCBF46EA41
:103C90000646360C4FF000034FF000024FF00001D3
:103CA0009EE72DE9C048934630B491E8380007C834
:103CB00031EA400C48BF34EA430C03D5FFF7C7FD97
:103CC000FFF78CFFF0BCBDE800882DE9C0489346A3
:103CD00030B491E8380007C831EA400C48BF34EAF4
:103CE000430C03D5FFF7B3FDFFF74EFFF0BCBDE873
:103CF00000882DE9C048934630B491E8380007C8E1
:103D000010F0804F08BF13F0804F03D100F019F876
:103D1000FFF764FFF0BCBDE800882DE9C04893467A
:103D200030B491E8380007C810F0804F08BF13F096
:103D3000804F03D100F005F8FFF726FFF0BCBDE887
:103D4000008820F07F4780EA030023F07F4C07EBD8
:103D50000C03A3F57C5300F00040A3F1FE0392F0A6
:103D6000000F00F0B38095F0000F00F077802DE990
:103D700001494FEA11404FEA144621EA004800FB8E
:103D800006FC24EA064708FB06F607FB08F800FBDA
:103D900007F718EB06484CEB164C4FEA124B18EBA2
:103DA00007484FEA15464CEB174022EA0B4E0BFB37
:103DB00006FC25EA06470EFB06F607FB0EFE0BFB8C
:103DC00007F71EEB064E4CEB164C4FF000061EEBB1
:103DD000074E4CEB174B18EB0B0840F1000018EBAB
:103DE0000E0B58EB000840F100008F1A4FF0000155
:103DF0003CBFC943661B14BFB5EB040C00213CBF9C
:103E0000C943F61B4FEA17444EEA8E0E27EA0445D3
:103E10004FEA1C4704FB07622CEA074C05FB07F737
:103E20000CFB05F604FB0CFC16EB074642EB1742B5
:103E300016EB0C4642EB1C421BEB060658EB02024B
:103E4000414146EA9E0601D5BDE80189B6195241B5
:103E500041EB0101A3F10103BDE801894FEA1445DB
:103E60004FEA114724EA054621EA074C05FB07F40F
:103E700006FB07F70CFB06F105FB0CFC11EB0741F9
:103E800044EB17444FEA124711EB0C4144EB1C443E
:103E900022EA074C05FB07F206FB07F70CFB06F6C8
:103EA00005FB0CFC16EB074642EB174216EB0C46E3
:103EB00042EB1C456A1854F1000148BF7047B6191F
:103EC000524141EB0101A3F10103704795F0000F4E
:103ED00037D04FEA11424FEA144721EA024624EA5A
:103EE000074C02FB07F106FB07F70CFB06F402FB8D
:103EF0000CFC14EB074441EB17414FEA154714EB58
:103F00000C4441EB1C4125EA074C02FB07F506FB7C
:103F100007F70CFB06F602FB0CFC16EB074645EB1D
:103F2000174516EB0C4645EB1C42121951F10001E6
:103F300048BF7047B619524141EB0101A3F101039B
:103F400070474FEA14454FEA114724EA054621EA33
:103F5000074C05FB07F106FB07F70CFB06F24FF0D9
:103F6000000605FB0CFC12EB074241EB174112EB7C
:103F70000C4251EB1C4148BF7047921841EB0101C4
:103F8000A3F101037047000000B58DB000BF002011
:103F900000904548006840F0010043490860084629
:103FA000006800F00100009000BF00BF00BF0020CB
:103FB00000903D480838006840F010003A49083940
:103FC00008600846006800F01000009000BF00BFC5
:103FD00000BF002000900846006840F0080008601C
:103FE0000846006800F00800009000BF00BF00BF56
:103FF000002000900846006840F040000860084635
:10400000006800F04000009000BF00BF4CF2337029
:1040100008900220099000200A9003200B900C20A9
:104020000C9008A9214819F0B7FF4FF6807008904E
:1040300008A91F4819F0B0FF4FF40070089008A9B4
:104040001C4819F0A9FF4FF020401B4908601B488D
:1040500048600220886002211748C1600021016188
:104060001021416100218161C161016241624FF40F
:10407000805181620021C162016341638163C16338
:10408000416403200190002002900520039001204C
:1040900004900020059006900790002201A9064890
:1040A0001BF064FB0DB000BD38380240000C02402C
:1040B0000010024000180240549B0120040100A09F
:1040C00038B51EA042F098FB1D49086008460068FC
:1040D00098B300211B48A0F86210042300F160028D
:1040E0001748006842F0A7FC40F6B83000F02EF800
:1040F0000020009012480068C06C134B0122592127
:10410000C4680F480068A0470D480068C06C0123D0
:104110001A46592144690A480068A0470121094804
:10412000A0F86210042300F1600200210448006836
:1041300042F081FC0A2000F009F838BD70696E0079
:10414000505A0020205600208170080800E000BF6F
:10415000011EA0F10100FAD17047000010B588B02F
:1041600000200790DD48418CC08C81427ED0DCA1CC
:10417000DD48FCF7C8FEDDA1DB48FCF75DFFDEA1F2
:10418000D948FCF759FF00220221D7483CF016F924
:10419000DB49086008460068401C38B9D948006807
:1041A000401CD8490860012008B010BD18E1022069
:1041B0000790CA48B0F8560000EBC00202EB80102E
:1041C00000F185010022CE48006839F03FF9CE4960
:1041D000CE48FCF798FEC148C08C00EB8000CC496B
:1041E00001EB40000288CBA102A8FCF77BFCC7488A
:1041F000029981609DF80C100173B848C08C00EBE7
:104200008000C34901EB40008078202839DBB348A7
:10421000C08C00EB800001EB4000807800F01000C3
:1042200020B1BEA102A8FCF76EFE2EE0AB48C08C08
:1042300000EB8000B64901EB4000807800F00800F8
:1042400020B1BAA102A8FCF75EFE03E0B9A102A862
:10425000FCF759FEA148C08C00EB8000AC4901EB93
:104260004000807800F0040030B100E033E1B3A1F9
:1042700002A8FCF7E1FE08E0B2A102A8FCF7DCFE10
:1042800003E0B2A102A8FCF73EFE0E2202A99F485D
:104290002B30FCF7DDFE9148C08C00EB80009C4980
:1042A00001EB40008078C0F34002ACA102A8FCF70B
:1042B00019FC96489DF8081080F840108748C08C7B
:1042C00000EB8000924901EB400050F8031F009181
:1042D0008188ADF8041080798DF8060002A8DDE928
:1042E000001223F025FF112202A988481330FCF7A1
:1042F000AFFE07A985484CF091F88448FCF732FEE0
:104300000446224681497E48006859F0D4F97C4829
:104310000068401C30B97B480068401C794908603F
:10432000012041E76D48B0F85400401C80B26B4951
:10433000A1F85400402802DB4020A1F8540067484F
:10434000B0F85600401C81B26448A0F856104029CD
:104350003CDB0021A0F8561082A16C48FCF7D3FD8D
:1043600007A96A484CF002F86848FCF7FBFD0446D0
:10437000224666496248006859F09DF96048006825
:10438000401C30B95F480068401C5E49086001204D
:104390000AE776A15D48FCF7B6FD07A95B484BF03C
:1043A000E5FF5A48FCF7DEFD0446224657495448CB
:1043B000006859F080F952480068401C30B95148F3
:1043C0000068401C4F4908600120EDE64348C08C5E
:1043D000401C81B24148C184FF2901DD0021C18414
:1043E0003E48418CC08C81427FF4E1AE3B48B0F83E
:1043F0005400402839DA5BA14448FCF784FD07A942
:1044000042484BF0B3FF4148FCF7ACFD044622465E
:104410003E493B48006859F04EF939480068401C55
:1044200030B938480068401C364908600120BBE6B6
:104430004EA13648FCF767FD07A934484BF096FFBC
:104440003248FCF78FFD0446224630492C4800686C
:1044500059F031F92A480068401C30B929480068F1
:10446000401C2849086001209EE601200790002298
:1044700070212348006838F0E9FF3FA12348FCF78A
:1044800042FD1648B0F8542040A102A8FCF72AFBD0
:104490001E480299C0F80D1007A94BF093FF1B4866
:1044A000FCF760FD0446224618491548006859F09B
:1044B00002F913480068401C30B912480068401CDB
:1044C0001049086001206FE60D48006829F099FE48
:1044D00000200C490860002066E6000084B300203C
:1044E0002F736F6A6F0000008C5701202F484953CB
:1044F000544F52592F434F002F636F2E786D6C002D
:104500005455002058550020F8B90A088C55012050
:1045100024C10020253035640000000063616E6313
:104520006C65202020202020202000006F70657204
:104530002020200073656C656374200073756363CD
:10454000657373006661696C202020006F7065726E
:104550002020207375636365737300002530316418
:10456000000000004461746152656300446174613D
:1045700046696C6500000000446174615265632007
:104580006E756D3D223030313022000025303464AC
:104590000000000030B52DED028B89B0002008909E
:1045A000D448418EC08E81427BD0D3A1D448FCF741
:1045B000AAFCD4A1D248FCF73FFDD6A1D048FCF715
:1045C0003BFD00220221CE483BF0F8FED4490860B2
:1045D00008460068401C48B9D2480068401CD149D0
:1045E0000860012009B0BDEC028B30BD04E102205F
:1045F0000890C048B0F85A004FF49C72504300F144
:1046000089010022C648006838F020FFC649C74823
:10461000FCF779FCB748C08E00EB800101EB40103D
:10462000C34901EB40004288C2A103A8FCF75AFA33
:10463000BE48039981609DF810100173AD48C08E8B
:1046400000EB800101EB4010B94901EB400000791B
:10465000421EBAA103A8FCF745FAB4489DF80C1015
:1046600080F82B10A348C08E00EB800101EB4010B6
:10467000AF4901EB400050F8051F01918188ADF86A
:10468000081080798DF80A0003A8DDE9011223F0F3
:104690004FFD112203A9A5481330FCF7D9FC0024D3
:1046A00047E024E19348C08E00EB800101EB40100D
:1046B0009F4901EB40000E3004EB440100EB410048
:1046C00002889CA103A8FCF70DFA04EB840000EB20
:1046D000C4019648343000EB4100039901609DF815
:1046E000101001718348C08E00EB800202EB401075
:1046F0008F4A02EB40000E3004EB440200EB420014
:10470000D0F8021008465AF0E3FD41EC180B53ECC8
:10471000182B8CA103A8FCF7E5F904EB840000EB4F
:10472000C4018248413000EB410003990160601CE4
:10473000C4B20A2CB6DB08A97C484BF06FFE7B485C
:10474000FCF710FC05462A4678497548006858F081
:10475000B2FF73480068401C30B972480068401CC2
:104760007049086001203DE76248B0F85800401CDD
:1047700080B26049A1F85800402802DB4020A1F82F
:1047800058005C48B0F85A00401C81B25948A0F863
:104790005A10402926DB0021A0F85A106BA163486B
:1047A000FCF7B1FB08A961484BF0E0FD5F48FCF75E
:1047B000D9FB05462A465D495948006858F07BFFF9
:1047C00064A15A48FCF79FFB08A958484BF0CEFD5E
:1047D0005648FCF7C7FB05462A465449504800682E
:1047E00058F069FF4348C08E401C81B24148C186E1
:1047F000102901DB0021C1863E48418EC08E8142D6
:104800007FF4F5AE3B48B0F85800402839DA4FA1A4
:104810004648FCF778FB08A944484BF0A7FD4348FD
:10482000FCF7A0FB05462A4640493D48006858F081
:1048300042FF3B480068401C30B93A480068401CC1
:10484000384908600120CDE642A13848FCF75BFBFF
:1048500008A936484BF08AFD3448FCF783FB05462F
:104860002A4632492E48006858F025FF2C48006837
:10487000401C30B92B480068401C2A4908600120C0
:10488000B0E601200890002274212548006838F025
:10489000DDFD33A12548FCF736FB1648B0F858205B
:1048A00034A103A8FCF71EF920480399C0F80D10A5
:1048B00008A94BF087FD1D48FCF754FB05462A4626
:1048C0001A491748006858F0F6FE15480068401C61
:1048D00030B914480068401C12490860012081E684
:1048E0000F48006829F08DFC00200E490860002068
:1048F00078E6000084B300202F736F6A6F00000019
:104900008C5701202F484953544F52592F46455632
:10491000454E54002F666576656E742E786D6C007A
:1049200054550020585500203CBA0A088C550120E7
:10493000A4C3002025303564000000002530316418
:104940000000000025302E346600000044617461D0
:10495000526563004461746146696C650000000043
:1049600044617461526563206E756D3D2230303153
:1049700030220000253034640000000010B500F043
:104980000FF808B1012010BDFFF7E8FB08B10120C6
:10499000F9E7FFF7FFFD08B10120F4E70020F2E797
:1049A00010B588B000200790B7484188C088814280
:1049B0007DD0B6A1B748FCF7A6FAB7A1B548FCF779
:1049C0003BFBB9A1B348FCF737FB00220221B148F9
:1049D0003BF0F4FCB749086008460068401C38B951
:1049E000B5480068401CB4490860012008B010BDFB
:1049F000CCE002200790A448B0F852003422504383
:104A000000F186010022AB48006838F01FFDABA121
:104A1000B648FCF778FA9C48C08800EB8000B4499F
:104A200001EB40000288B3A102A8FCF75BF8AF4895
:104A3000029981609DF80C1001739348C08800EBC7
:104A40008000AB4901EB40008078421EABA102A878
:104A5000FCF748F8A5489DF8081080F82B108A4804
:104A6000C08800EB8000A24901EB400050F8031F12
:104A700000918188ADF8041080798DF8060002A8B5
:104A8000DDE9001223F054FB112202A997481330EC
:104A9000FCF7DEFA07A995484BF0C0FC9348FCF7F9
:104AA00061FA0446224691498248006800E0E9E044
:104AB00058F001FE7F480068401C30B97E4800680D
:104AC000401C7D490860012090E76F48B0F8500015
:104AD000401C80B26C49A1F85000B0F5007F03DBA8
:104AE0004FF40070A1F850006748B0F85200401C25
:104AF00081B26548A0F85210B1F5007F3CDB00217F
:104B0000A0F852107FA17948FCF7FDF907A9774872
:104B10004BF02CFC7548FCF725FA044622467349F5
:104B20006448006858F0C7FD62480068401C30B90E
:104B300061480068401C60490860012056E773A185
:104B40006A48FCF7E0F907A968484BF00FFC674892
:104B5000FCF708FA0446224664495648006858F0B3
:104B6000AAFD54480068401C30B953480068401CF6
:104B700051490860012039E74348C088401C81B290
:104B80004148C180FF2901DD0021C1803E484188A4
:104B9000C08881427FF42DAF3B48B0F85000B0F59B
:104BA000007F39DA57A15148FCF7ADF907A94F4802
:104BB0004BF0DCFB4D48FCF7D5F9044622464B4947
:104BC0003C48006858F077FD3A480068401C30B90E
:104BD00039480068401C38490860012006E74BA1AD
:104BE0004248FCF790F907A940484BF0BFFB3F480B
:104BF000FCF7B8F9044622463C492E48006858F0B4
:104C00005AFD2C480068401C30B92B480068401CF5
:104C1000294908600120E9E601200790002270215F
:104C20002448006838F012FC3BA13048FCF76BF9CF
:104C30001548B0F850203DA102A8FBF753FF2B48C0
:104C40000299C0F80D1007A94BF0BCFB2748FCF7F0
:104C500089F90446224625491648006858F02BFD7C
:104C600014480068401C30B913480068401C1249C1
:104C700008600120BAE60F48006829F0C2FA002057
:104C80000D4908600020B1E684B300202F736F6ADD
:104C90006F0000008C5701202F484953544F525940
:104CA0002F534F45000000002F736F652E786D6CF9
:104CB0000000000054550020585500204449206948
:104CC0006F613D2230303030312220746D3D223111
:104CD00036303831335F3138303030305F30313159
:104CE000222076616C3D2230220000008C5501208C
:104CF000A4B4002025303564000000002530316464
:104D00000000000044617461526563004461746195
:104D100046696C650000000044617461526563205F
:104D20006E756D3D22303031302200002530346404
:104D30000000000030B52DED068B85B0044600253F
:104D4000D4E902122069CDE90012029023A127487C
:104D5000D4E90023FBF7C6FE054694ED070A10EEE2
:104D6000101A08465AF0B4FA41EC180B94ED060AF2
:104D700010EE101A08465AF0ABFA41EC190B94EDFC
:104D8000050A10EE101A08465AF0A2FA41EC1A0B66
:104D90008DED028B8DED009B1449481953EC1A2BB5
:104DA00013A1FBF79FFE0544D4E90901CDE90001F9
:104DB000B4F92230B4F920200C4948190FA1FBF7AF
:104DC00091FE05440949481910A1E26AFBF78AFEE1
:104DD0000544064805B0BDEC068B30BD25732C2577
:104DE000732C25732C25732C25732C00FC5F01205C
:104DF00025662C25662C25662C00000025642C25B4
:104E0000642C25642C25642C000000002573000010
:104E1000012807D10449498C044A02EB810181ED44
:104E2000000A00BF00BF7047EE8F00205C9000209A
:104E300070B505460E46042044F04EFE044634602C
:104E40000020206005EB4501034A02EB8100224669
:104E5000002137F0C2FF70BD203201200146002042
:104E600001F00F020B0903EB830302EB4302D0B204
:104E7000704700002DE9F04107460E46002524E06A
:104E800000241EE004EB4400284407EBC00090ED32
:104E9000001BB0EE410AF0EE610A51EC100B58F025
:104EA000A7FE06EB052141F834009FED0A0A06EB48
:104EB00005216000401C01EB800080ED000A601CB1
:104EC000C4B2202CDEDB681CC5B2032DD8DBBDE8E4
:104ED000F08100000000000000BFFEE710B50A46A8
:104EE000002327E0002120E000EB810494ED000A7C
:104EF0004C1C00EB840494ED001AB4EEC10AF1EEF0
:104F000010FA11DD00EB8104D4ED000A4C1C00EB1B
:104F1000840494ED000A00EB810484ED000A4C1C2B
:104F200000EB8404C4ED000A491C541EE41A8C42B0
:104F3000DADC5B1C541E9C42D4DC90ED010A10BDEF
:104F40002DE9F0412DED0A8BF0EE409AF0EE608AEB
:104F5000B0EE41AAB0EE619A9FED950AF0EE40AA3C
:104F60009FED930AB0EE408A0027F5EEC08AF1EE7D
:104F700010FA09D1B5EEC09AF1EE10FA04D19FED06
:104F80008C0AB0EE408A3AE0F5EEC08AF1EE10FAF3
:104F900004D19FED880AB0EE408A30E0B5EEC09AA9
:104FA000F1EE10FA04D19FED840AB0EE408A26E0BB
:104FB00089EEA80ACAEE090A70EE600A89EEA81AFC
:104FC000CAEE091AB7EE000A01EE210A80EE801A35
:104FD00011EE108A40465AF07BF941EC1C0BB0EE02
:104FE0004C0AF0EE6C0A26F0EBF9B0EE40BAF0EEA7
:104FF00060BA51EC1B0B58F0FBFD08EE100AF5EE01
:10500000C09AF1EE10FA01DB012001E04FF0FF3011
:10501000B5EEC0AAF1EE10FA01DB012101E04FF07C
:10502000FF3100FB01F5F5EEC08AF1EE10FA01DB6D
:10503000012001E04FF0FF30B5EEC09AF1EE10FA1A
:1050400001DB012101E04FF0FF3100FB01F4F5EE3F
:10505000C09AF1EE10FA01DB012001E04FF0FF30C1
:10506000F5EEC08AF1EE10FA01DB012101E04FF00C
:10507000FF3100FB01F6B5EEC0AAF1EE10FA01DB3C
:10508000012001E04FF0FF30B5EEC09AF1EE10FACA
:1050900001DB012101E04FF0FF3100FB01F7002CA3
:1050A00008DB002D06DB9FED420A38EE000AB0EE69
:1050B000408A6DE0002C08DC002D06DC9FED3F0AE5
:1050C00038EE000AB0EE408A62E0002C2FDB002DA3
:1050D0002DDC002E01DD012000E0002040EAD77029
:1050E00090B1B5EEC08AF1EE10FA06D29FED330A08
:1050F00038EE000AB0EE408A4AE09FED2D0A38EE05
:10510000000AB0EE408A43E0B5EEC08AF1EE10FA34
:1051100006D29FED270A38EE000AB0EE408A37E04B
:105120009FED260A38EE000AB0EE408A30E0002CEF
:105130002EDC002D2CDB002E01DD012000E0002004
:1051400040EAD77090B1B5EEC08AF1EE10FA06D2FF
:105150009FED170A38EE000AB0EE408A18E09FED86
:10516000170A38EE000AB0EE408A11E0B5EEC08AA8
:10517000F1EE10FA06D29FED110A38EE000AB0EEF9
:10518000408A05E09FED0A0A38EE000AB0EE408A38
:105190009FED0B0A28EE000ADFED080A80EE201AC8
:1051A000F0EE41AAB0EE6A0ABDEC0A8BBDE8F081D0
:1051B00000000000DA0FC9BFDA0FC93FDA0F49401B
:1051C0000000344300B58DB0FE4800780A900A987C
:1051D00002287DDB00200B901BE10A98801E00EB6B
:1051E0004000F949096801EB40110B9831F91000B2
:1051F000099059F0FBF90A460146F44B0B9803EB72
:10520000C00006C00A98801E00EB4001EE4800680E
:1052100000F5965000EB41110B9831F91000099000
:1052200059F0E4F90A460146E94B0B9803EBC0003C
:1052300006C00A98801E00EB4001E348006800F5B4
:10524000165000EB41110B9831F91000099059F0FC
:10525000CDF90A460146DF4B0B9803EBC00006C0B0
:105260000A98801E00EB4001D748006800F56150A5
:1052700000EB41110B9831F91000099059F0B6F983
:105280000A460146D44B0B9803EBC00006C00A98AF
:10529000801E00EB4001CC48006800F5964000EB12
:1052A00041110B9831F91000099059F09FF90A4605
:1052B0000146CA4B0B9803EBC00006C00A98801E3B
:1052C00000EB4000C049096845F6C052114400E0B7
:1052D000A4E001EB40110B9831F91000099059F04E
:1052E00085F90A460146BE4B0B9803EBC00006C089
:1052F0000A98801E00EB4001B348006800F5E140C9
:1053000000EB41110B9831F91000099059F06EF93A
:105310000A460146B34B0B9803EBC00006C00A983F
:10532000801E00EB4000A849096848F24032114451
:1053300001EB40110B9831F91000099059F056F922
:105340000A460146A84B0B9803EBC00006C00A981A
:10535000801E00EB40019C48006800F5164000EB01
:1053600041110B9831F91000099059F03FF90A46A4
:1053700001469E4B0B9803EBC00006C00A98801EA6
:1053800000EB4001904800684AF6C002104400EB70
:1053900041110B9831F91000099059F027F90A468C
:1053A0000146934B0B9803EBC00006C00A98801E81
:1053B00000EB4000844909684BF68032114401EB50
:1053C00040110B9831F91000099059F00FF90A4675
:1053D0000146884B0B9803EBC00006C00A98801E5C
:1053E00000EB4001784800684CF64062104400EB46
:1053F00041110B9831F91000099059F0F7F80A465D
:1054000001467D4B0B9803EBC00006C00B98401C77
:105410000B900B986028FFF6E0AEE3E20A980028B4
:105420007DD10B9000E16848006800F590500B9921
:1054300030F91100099059F0D9F80A460146634B3A
:105440000B9803EBC00006C05F48006800F51350DE
:105450000B9930F91100099059F0C8F80A46014635
:105460005B4B0B9803EBC00006C05748006800F583
:105470005E500B9930F91100099059F0B7F80A46BF
:105480000146544B0B9803EBC00006C04E48006821
:1054900000F5615000F590500B9930F9110009901A
:1054A00059F0A4F80A4601464B4B0B9803EBC00099
:1054B00006C04548006800F5BA400B9930F9110064
:1054C000099059F093F80A460146444B0B9803EBB8
:1054D000C00006C03C48006845F6C051084400F5CD
:1054E00090500B9930F91100099059F07FF80A4655
:1054F00001463B4B0B9803EBC00006C032480068E6
:1055000000F5E14000F590500B9930F91100099039
:1055100059F06CF80A460146324B0B9800E088E0DF
:1055200003EBC00006C02848006848F24031084438
:1055300000F590500B9930F91100099059F056F888
:105540000A460146284B0B9803EBC00006C01E48D4
:10555000006800F528400B9930F91100099059F0C6
:1055600045F80A460146214B0B9803EBC00006C0E4
:10557000154801684AF6C000084400F590500B99A0
:1055800030F91100099059F031F80A460146184BDC
:105590000B9803EBC00006C00B4800684BF6803147
:1055A000084400F590500B9930F91100099059F01A
:1055B0001DF80A4601460F4B0B9803EBC00006C0CE
:1055C00001481BE0840100208801002070DA0020DF
:1055D00070DD002070E0002070E3002070CE00201D
:1055E00070D1002070D4002070D7002070E6002019
:1055F00070E9002070EC002070EF002000684CF68D
:105600004061084400F590500B9930F91100099061
:1056100058F0ECFF0A460146FE4B0B9803EBC00026
:1056200006C00B98401C0B900B986028FFF6FBAE51
:10563000D8E10A980128FBD100200B90E9E0F64858
:10564000006800F593500B9930F91100099058F05B
:10565000CDFF0A460146F14B0B9803EBC00006C094
:10566000ED48006800F5965000F593500B9930F91D
:105670001100099058F0BAFF0A460146E84B0B9812
:1056800003EBC00006C0E448006800F5165000F5C2
:1056900093500B9930F91100099058F0A7FF0A4672
:1056A0000146E04B0B9803EBC00006C0DA480068E7
:1056B00000F5615000F593500B9930F911000990F5
:1056C00058F094FF0A460146D74B0B9803EBC000F5
:1056D00006C0D148006800F5964000F593500B993C
:1056E00030F91100099058F081FF0A460146CF4B6E
:1056F0000B9803EBC00006C0C748006845F6C051D0
:10570000084400F593500B9930F91100099058F0B6
:105710006DFF0A460146C64B0B9803EBC00006C05E
:10572000BD48006800F5E14000F593500B9930F951
:105730001100099058F05AFF0A460146BD4B0B98DC
:1057400003EBC00006C0B448006848F2403108448A
:1057500000F593500B9930F91100099058F046FF6D
:105760000A460146B44B0B9803EBC00006C0AA489A
:10577000006800F5164000F593500B9930F91100C0
:10578000099058F033FF0A460146AC4B0B9803EBE7
:10579000C00006C0A04800684AF6C001084400F5F1
:1057A00093500B9930F91100099058F01FFF0A46E9
:1057B0000146A34B0B9803EBC00006C09648006857
:1057C0004BF68031084400F593500B9930F91100E5
:1057D000099058F00BFF0A4601469A4B0B9803EBD1
:1057E000C00006C08C4800684CF64061084400F5D3
:1057F00093500B9930F91100099058F0F7FE0A46C2
:105800000146844B0B9803EBC00006C00B98401C6C
:105810000B900B983028FFF612AF00200B90DDE0C4
:105820007D4801680B9831F91000099058F0DEFEB0
:105830000A4601460B983030784B03EBC00006C097
:105840007548006800F596500B9930F911000990E1
:1058500058F0CCFE0A4601460B983030704B03EBF3
:10586000C00006C06C48006800F516500B9930F96E
:105870001100099058F0BAFE0A4601460B983030E4
:10588000684B03EBC00006C06348006800F5615038
:105890000B9930F91100099058F0A8FE0A4601460C
:1058A0000B983030604B03EBC00006C05A480068CC
:1058B00000F596400B9930F91100099058F096FECA
:1058C0000A4601460B983030584B03EBC00006C027
:1058D0005148006845F6C05101440B9831F9100059
:1058E000099058F083FE0A4601460B983030504B21
:1058F00003EBC00006C04848006800F5E1400B9982
:1059000030F91100099058F071FE0A4601460B98D3
:105910003030484B03EBC00006C03F48016848F2F6
:10592000403001440B9831F91000099058F05EFEA8
:105930000A4601460B9830303F4B03EBC00006C0CF
:105940003548006800F516400B9930F911000990B0
:1059500058F04CFE0A4601460B983030374B03EBAB
:10596000C00006C02C4800684AF6C00101440B98EC
:1059700031F91000099058F039FE0A4601460B989B
:1059800030302F4B03EBC00006C0234800684BF6B5
:10599000803101440B9831F91000099058F026FE2F
:1059A0000A4601460B983030264B03EBC00006C078
:1059B000194800684CF6406101440B9831F9100019
:1059C000099058F013FE0A4601460B983030114BEF
:1059D00003EBC00006C00B98401C0B900B983028BE
:1059E000FFF61EAF18490D48FFF744FA17490C4857
:1059F000FFF740FA16490B48FFF73CFA15490A48E9
:105A0000FFF738FA14490948FFF734FA13490848F0
:105A100026E0000070EF00208801002070DA0020EE
:105A200070DD002070E0002070E3002070CE0020C8
:105A300070D1002070D4002070D7002070E60020C4
:105A400070E9002070EC0020CC350120CC3801201A
:105A5000CC3B0120CC3E0120CC410120CC44012094
:105A6000FFF708FAFD49FE48FFF704FAFD49FE4832
:105A7000FFF700FAFD49FE48FFF7FCF9FD49FE4833
:105A8000FFF7F8F900200B90FEE3FC490B9801EBBF
:105A9000002001460990FA48FAF764FEF9490B988C
:105AA00001EB002001460990F548FAF75BFEF64944
:105AB0000B9801EB002001460990F148FAF752FEDD
:105AC000F2490B9801EB002001460990EC48FAF7E7
:105AD00049FEEF490B9801EB002001460990E84888
